:100000000C9434000C9449000C9449000C94490061
:100010000C9449000C9449000C9449000C9449003C
:100020000C9449000C9449000C9449000C9449002C
:100030000C9449000C9449000C9449000C9449001C
:100040000C9449000C9449000C9449000C9449000C
:100050000C9449000C9449000C9449000C944900FC
:100060000C9449000C94490011241FBECFEFD8E036
:10007000DEBFCDBF11E0A0E0B1E0ECEDF5E002C0E5
:1000800005900D92A031B107D9F70E9421010C947F
:10009000EC020C9400005E9A00C05E980895CF9325
:1000A000DF93D82F662311F05C9A01C05C985D98AD
:1000B0008AB18F608AB9CBB1C07F8D2F82958F7046
:1000C0008C2B8BB90E944B00DF70DC2BDBB90E94BC
:1000D0004B00CF60CBB9DF91CF910895882311F009
:1000E0005C9A01C05C985D9A8AB1807F8AB95E9AF9
:1000F00000C099B15E9800C05E9A00C029B12F700F
:10010000892F8295807F5E98822B089580E00E94DF
:100110006E008823DCF388E090E00197F1F780E03F
:100120000E946E000895CF93C82F0E94860060E061
:100130008C2F0E944F00CF910895611104C0805808
:100140000E949300089580540E949300089581E0D6
:100150000E9493000895CF93C82F0E948600CA3052
:1001600049F4803410F080E001C080E480580E949F
:10017000930004C061E08C2F0E944F00CF9108953E
:10018000CF93DF93EC012196FC018081882329F035
:100190000E94AB0089918111FBCFDF91CF9108952F
:1001A0001F93CF93DF93182F8AB18F678AB980E0AE
:1001B0009AEF0197F1F7599A589A0E944B0080E004
:1001C0009EE40197F1F70E944B00C0E0D1E0CE0120
:1001D0000197F1F70E944B00CE010197F1F7589873
:1001E0000E944B002197F1F788E20E94930088E07B
:1001F0000E9493000E94A70086E00E949300812F36
:100200000E949300DF91CF911F91089580E4809325
:100210007C0087E880937A000895ECE7F0E0908115
:10022000987F8770892B8083EAE7F0E08081806483
:100230008083808186FDFDCF809178009091790048
:100240000895CF93DF93CDB7DEB72A970FB6F89412
:10025000DEBF0FBECDBF8FEF84B90E9406018EE0D6
:100260000E94D0000E94A70060E080E00E949D00F4
:100270008FE19EE40197F1F700C0000080E00E944A
:100280000D018C0160E080E00E949D00B80180E0DB
:1002900090E00E941E0227ED33EA40E050E40E9405
:1002A00076010E94E801DC01CB014AE050E0BE018A
:1002B0006F5F7F4F0E94AC0280E091E00E94C0001F
:1002C000CE0101960E94C00060E08FE00E949D0078
:1002D0008EE091E00E94C0009FEF21EE84E09150FB
:1002E00020408040E1F700C00000C8CF0E948A0192
:1002F0000C9472020E946B0258F00E94640240F05B
:1003000029F45F3F29F00C945B0251110C94A60272
:100310000C9461020E94830268F39923B1F3552380
:1003200091F3951B550BBB27AA2762177307840708
:1003300038F09F5F5F4F220F331F441FAA1FA9F39E
:1003400035D00E2E3AF0E0E832D091505040E6958C
:10035000001CCAF72BD0FE2F29D0660F771F881FED
:10036000BB1F261737074807AB07B0E809F0BB0BE0
:10037000802DBF01FF2793585F4F3AF09E3F5105F4
:1003800078F00C945B020C94A6025F3FE4F3983E75
:10039000D4F3869577956795B795F7959F5FC9F7DD
:1003A000880F911D9695879597F90895E1E0660F5E
:1003B000771F881FBB1F621773078407BA0720F0D7
:1003C000621B730B840BBA0BEE1F88F7E095089540
:1003D0000E94EF016894B1110C94A60208950E9446
:1003E0008B0288F09F5798F0B92F9927B751B0F03A
:1003F000E1F0660F771F881F991F1AF0BA95C9F7A9
:1004000014C0B13091F00E94A502B1E008950C949F
:10041000A502672F782F8827B85F39F0B93FCCF352
:10042000869577956795B395D9F73EF49095809525
:10043000709561957F4F8F4F9F4F0895E89409C045
:1004400097FB3EF490958095709561957F4F8F4F07
:100450009F4F9923A9F0F92F96E9BB279395F6951D
:10046000879577956795B795F111F8CFFAF4BB0F9B
:1004700011F460FF1BC06F5F7F4F8F4F9F4F16C0FF
:10048000882311F096E911C0772321F09EE8872F89
:10049000762F05C0662371F096E8862F70E060E045
:1004A0002AF09A95660F771F881FDAF7880F9695BE
:1004B000879597F9089597F99F6780E870E060E065
:1004C00008959FEF80EC089500240A9416161706ED
:1004D00018060906089500240A9412161306140635
:1004E00005060895092E0394000C11F4882352F098
:1004F000BB0F40F4BF2B11F460FF04C06F5F7F4F50
:100500008F4F9F4F089557FD9058440F551F59F036
:100510005F3F71F04795880F97FB991F61F09F3FF0
:1005200079F087950895121613061406551FF2CF19
:100530004695F1DF08C0161617061806991FF1CF69
:1005400086957105610508940895E894BB27662790
:100550007727CB0197F908954532510520F44230B1
:1005600010F00C94B702FB011082CB010895BB2759
:100570004A3031F4992322F4BDE2909581959F4F42
:100580000C94C302BB27FB015527AA27880F991F8C
:10059000AA1FA41710F0A41B83955051B9F7A05DB2
:1005A000AA3308F0A95DA193009779F7B111B1932F
:1005B0001192CB010C94DC02DC01FC01672F7191DC
:1005C0007723E1F7329704C07C916D937083629139
:0C05D000AE17BF07C8F30895F894FFCFE2
:1005DC0054656D7065726174757265203D004300E1
:00000001FF
