:100000000C9434000C9449000C9449000C94490061
:100010000C9449000C9449000C9449000C9449003C
:100020000C9449000C9449000C9449000C9449002C
:100030000C9449000C9449000C9449000C9449001C
:100040000C9449000C9449000C9449000C9449000C
:100050000C9449000C9449000C9449000C944900FC
:100060000C9449000C94490011241FBECFEFD8E036
:10007000DEBFCDBF11E0A0E0B1E0E6EAF2E002C0F1
:1000800005900D92A631B107D9F70E94E2000C94B9
:1000900051010C940000982F907F9BB94398459A8A
:1000A000E9EFF0E03197F1F700C000004598E9EF83
:1000B000F0E03197F1F700C00000F0E18F9FC00140
:1000C00011248BB9459A89EF90E00197F1F700C0B0
:1000D00000004598E9EFF0E03197F1F700C000002B
:1000E000089580EF8AB987B1886387B980E28BB9B8
:1000F000459A89EF90E00197F1F700C0000045981C
:1001000089EF90E00197F1F700C0000088E20E94BB
:100110004B0089EF90E00197F1F700C000008FE0FD
:100120000E944B0089EF90E00197F1F700C00000BA
:1001300080E80E944B000895982F907F9BB9439AC6
:10014000459AE3EFF1E03197F1F700C000004598E0
:10015000E3EFF1E03197F1F700C00000F0E18F9F8D
:10016000C00111248BB9459A83EF91E00197F1F713
:1001700000C000004598E3EFF1E03197F1F700C0CF
:1001800000000895CF93DF93EC018881882331F03C
:1001900021960E949C0089918111FBCFDF91CF9124
:1001A000089581E00E944B00089520E4829FC001E1
:1001B00011248068860F0E944B0080E18A95F1F738
:1001C00000C00895CF93DF93CDB7DEB761970FB628
:1001D000F894DEBF0FBECDBF0E94710021E1E5E0C3
:1001E000F1E0CE010196DC0101900D922A95E1F734
:1001F000FC0101900020E9F73197E81BF90B7F0122
:100200005F012FEFA21AB20AFF20BCF100E010E05C
:100210000E94D100602F80E00E94D500CE0101969F
:100220000E94C2008FE996E821E081509040204072
:10023000E1F700C000000F5F1F4FE016F10644F722
:100240008E010F5F1F4F6801CA0CDB1C0E94D1009A
:1002500060E080E00E94D500C8010E94C2008FE9E2
:1002600096E821E0815090402040E1F700C0000076
:100270000F5F1F4FC016D10649F70E94D10060E002
:1002800081E00E94D50080E091E00E94C2008FE3EF
:100290009DE023E0815090402040E1F700C0000045
:0602A000B3CFF894FFCF7C
:1002A6004445494500456D6265646465642053793B
:0602B6007374656D730016
:00000001FF
